{
  "address": "0xF117914A12856f4B6C8ff7CBa3802c921f526708",
  "abi": [
    {
      "anonymous": false,
      "inputs": [
        {
          "indexed": false,
          "internalType": "address",
          "name": "addr",
          "type": "address"
        },
        {
          "indexed": false,
          "internalType": "uint256",
          "name": "commitment",
          "type": "uint256"
        }
      ],
      "name": "AddedCommitment",
      "type": "event"
    },
    {
      "anonymous": false,
      "inputs": [],
      "name": "AuctionCancelled",
      "type": "event"
    },
    {
      "anonymous": false,
      "inputs": [
        {
          "indexed": false,
          "internalType": "address",
          "name": "funder",
          "type": "address"
        },
        {
          "indexed": false,
          "internalType": "address",
          "name": "token",
          "type": "address"
        },
        {
          "indexed": false,
          "internalType": "uint256",
          "name": "totalTokens",
          "type": "uint256"
        },
        {
          "indexed": false,
          "internalType": "address",
          "name": "paymentCurrency",
          "type": "address"
        },
        {
          "indexed": false,
          "internalType": "address",
          "name": "admin",
          "type": "address"
        },
        {
          "indexed": false,
          "internalType": "address",
          "name": "wallet",
          "type": "address"
        }
      ],
      "name": "AuctionDeployed",
      "type": "event"
    },
    {
      "anonymous": false,
      "inputs": [],
      "name": "AuctionFinalized",
      "type": "event"
    },
    {
      "anonymous": false,
      "inputs": [
        {
          "indexed": false,
          "internalType": "address",
          "name": "pointList",
          "type": "address"
        },
        {
          "indexed": false,
          "internalType": "bool",
          "name": "enabled",
          "type": "bool"
        }
      ],
      "name": "AuctionPointListUpdated",
      "type": "event"
    },
    {
      "anonymous": false,
      "inputs": [
        {
          "indexed": false,
          "internalType": "uint256",
          "name": "minimumCommitmentAmount",
          "type": "uint256"
        }
      ],
      "name": "AuctionPriceUpdated",
      "type": "event"
    },
    {
      "anonymous": false,
      "inputs": [
        {
          "indexed": false,
          "internalType": "uint256",
          "name": "startTime",
          "type": "uint256"
        },
        {
          "indexed": false,
          "internalType": "uint256",
          "name": "endTime",
          "type": "uint256"
        }
      ],
      "name": "AuctionTimeUpdated",
      "type": "event"
    },
    {
      "anonymous": false,
      "inputs": [
        {
          "indexed": false,
          "internalType": "address",
          "name": "wallet",
          "type": "address"
        }
      ],
      "name": "AuctionWalletUpdated",
      "type": "event"
    },
    {
      "anonymous": false,
      "inputs": [
        {
          "indexed": true,
          "internalType": "string",
          "name": "_name",
          "type": "string"
        },
        {
          "indexed": false,
          "internalType": "string",
          "name": "_data",
          "type": "string"
        }
      ],
      "name": "DocumentRemoved",
      "type": "event"
    },
    {
      "anonymous": false,
      "inputs": [
        {
          "indexed": true,
          "internalType": "string",
          "name": "_name",
          "type": "string"
        },
        {
          "indexed": false,
          "internalType": "string",
          "name": "_data",
          "type": "string"
        }
      ],
      "name": "DocumentUpdated",
      "type": "event"
    },
    {
      "anonymous": false,
      "inputs": [
        {
          "indexed": true,
          "internalType": "bytes32",
          "name": "role",
          "type": "bytes32"
        },
        {
          "indexed": true,
          "internalType": "bytes32",
          "name": "previousAdminRole",
          "type": "bytes32"
        },
        {
          "indexed": true,
          "internalType": "bytes32",
          "name": "newAdminRole",
          "type": "bytes32"
        }
      ],
      "name": "RoleAdminChanged",
      "type": "event"
    },
    {
      "anonymous": false,
      "inputs": [
        {
          "indexed": true,
          "internalType": "bytes32",
          "name": "role",
          "type": "bytes32"
        },
        {
          "indexed": true,
          "internalType": "address",
          "name": "account",
          "type": "address"
        },
        {
          "indexed": true,
          "internalType": "address",
          "name": "sender",
          "type": "address"
        }
      ],
      "name": "RoleGranted",
      "type": "event"
    },
    {
      "anonymous": false,
      "inputs": [
        {
          "indexed": true,
          "internalType": "bytes32",
          "name": "role",
          "type": "bytes32"
        },
        {
          "indexed": true,
          "internalType": "address",
          "name": "account",
          "type": "address"
        },
        {
          "indexed": true,
          "internalType": "address",
          "name": "sender",
          "type": "address"
        }
      ],
      "name": "RoleRevoked",
      "type": "event"
    },
    {
      "anonymous": false,
      "inputs": [
        {
          "indexed": false,
          "internalType": "address",
          "name": "token",
          "type": "address"
        },
        {
          "indexed": false,
          "internalType": "address",
          "name": "to",
          "type": "address"
        },
        {
          "indexed": false,
          "internalType": "uint256",
          "name": "amount",
          "type": "uint256"
        }
      ],
      "name": "TokensWithdrawn",
      "type": "event"
    },
    {
      "inputs": [],
      "name": "DEFAULT_ADMIN_ROLE",
      "outputs": [
        {
          "internalType": "bytes32",
          "name": "",
          "type": "bytes32"
        }
      ],
      "stateMutability": "view",
      "type": "function"
    },
    {
      "inputs": [],
      "name": "MINTER_ROLE",
      "outputs": [
        {
          "internalType": "bytes32",
          "name": "",
          "type": "bytes32"
        }
      ],
      "stateMutability": "view",
      "type": "function"
    },
    {
      "inputs": [],
      "name": "OPERATOR_ROLE",
      "outputs": [
        {
          "internalType": "bytes32",
          "name": "",
          "type": "bytes32"
        }
      ],
      "stateMutability": "view",
      "type": "function"
    },
    {
      "inputs": [],
      "name": "SMART_CONTRACT_ROLE",
      "outputs": [
        {
          "internalType": "bytes32",
          "name": "",
          "type": "bytes32"
        }
      ],
      "stateMutability": "view",
      "type": "function"
    },
    {
      "inputs": [
        {
          "internalType": "address",
          "name": "_address",
          "type": "address"
        }
      ],
      "name": "addAdminRole",
      "outputs": [],
      "stateMutability": "nonpayable",
      "type": "function"
    },
    {
      "inputs": [
        {
          "internalType": "address",
          "name": "_address",
          "type": "address"
        }
      ],
      "name": "addMinterRole",
      "outputs": [],
      "stateMutability": "nonpayable",
      "type": "function"
    },
    {
      "inputs": [
        {
          "internalType": "address",
          "name": "_address",
          "type": "address"
        }
      ],
      "name": "addOperatorRole",
      "outputs": [],
      "stateMutability": "nonpayable",
      "type": "function"
    },
    {
      "inputs": [
        {
          "internalType": "address",
          "name": "_address",
          "type": "address"
        }
      ],
      "name": "addSmartContractRole",
      "outputs": [],
      "stateMutability": "nonpayable",
      "type": "function"
    },
    {
      "inputs": [],
      "name": "auctionEnded",
      "outputs": [
        {
          "internalType": "bool",
          "name": "",
          "type": "bool"
        }
      ],
      "stateMutability": "view",
      "type": "function"
    },
    {
      "inputs": [],
      "name": "auctionSuccessful",
      "outputs": [
        {
          "internalType": "bool",
          "name": "",
          "type": "bool"
        }
      ],
      "stateMutability": "view",
      "type": "function"
    },
    {
      "inputs": [],
      "name": "auctionToken",
      "outputs": [
        {
          "internalType": "address",
          "name": "",
          "type": "address"
        }
      ],
      "stateMutability": "view",
      "type": "function"
    },
    {
      "inputs": [
        {
          "internalType": "bytes[]",
          "name": "calls",
          "type": "bytes[]"
        },
        {
          "internalType": "bool",
          "name": "revertOnFail",
          "type": "bool"
        }
      ],
      "name": "batch",
      "outputs": [
        {
          "internalType": "bool[]",
          "name": "successes",
          "type": "bool[]"
        },
        {
          "internalType": "bytes[]",
          "name": "results",
          "type": "bytes[]"
        }
      ],
      "stateMutability": "payable",
      "type": "function"
    },
    {
      "inputs": [],
      "name": "cancelAuction",
      "outputs": [],
      "stateMutability": "nonpayable",
      "type": "function"
    },
    {
      "inputs": [
        {
          "internalType": "address",
          "name": "",
          "type": "address"
        }
      ],
      "name": "claimed",
      "outputs": [
        {
          "internalType": "uint256",
          "name": "",
          "type": "uint256"
        }
      ],
      "stateMutability": "view",
      "type": "function"
    },
    {
      "inputs": [
        {
          "internalType": "address payable",
          "name": "_beneficiary",
          "type": "address"
        },
        {
          "internalType": "bool",
          "name": "readAndAgreedToMarketParticipationAgreement",
          "type": "bool"
        }
      ],
      "name": "commitEth",
      "outputs": [],
      "stateMutability": "payable",
      "type": "function"
    },
    {
      "inputs": [
        {
          "internalType": "uint256",
          "name": "_amount",
          "type": "uint256"
        },
        {
          "internalType": "bool",
          "name": "readAndAgreedToMarketParticipationAgreement",
          "type": "bool"
        }
      ],
      "name": "commitTokens",
      "outputs": [],
      "stateMutability": "nonpayable",
      "type": "function"
    },
    {
      "inputs": [
        {
          "internalType": "address",
          "name": "_from",
          "type": "address"
        },
        {
          "internalType": "uint256",
          "name": "_amount",
          "type": "uint256"
        },
        {
          "internalType": "bool",
          "name": "readAndAgreedToMarketParticipationAgreement",
          "type": "bool"
        }
      ],
      "name": "commitTokensFrom",
      "outputs": [],
      "stateMutability": "nonpayable",
      "type": "function"
    },
    {
      "inputs": [
        {
          "internalType": "address",
          "name": "",
          "type": "address"
        }
      ],
      "name": "commitments",
      "outputs": [
        {
          "internalType": "uint256",
          "name": "",
          "type": "uint256"
        }
      ],
      "stateMutability": "view",
      "type": "function"
    },
    {
      "inputs": [
        {
          "internalType": "bool",
          "name": "_status",
          "type": "bool"
        }
      ],
      "name": "enableList",
      "outputs": [],
      "stateMutability": "nonpayable",
      "type": "function"
    },
    {
      "inputs": [],
      "name": "finalize",
      "outputs": [],
      "stateMutability": "nonpayable",
      "type": "function"
    },
    {
      "inputs": [],
      "name": "finalizeTimeExpired",
      "outputs": [
        {
          "internalType": "bool",
          "name": "",
          "type": "bool"
        }
      ],
      "stateMutability": "view",
      "type": "function"
    },
    {
      "inputs": [],
      "name": "finalized",
      "outputs": [
        {
          "internalType": "bool",
          "name": "",
          "type": "bool"
        }
      ],
      "stateMutability": "view",
      "type": "function"
    },
    {
      "inputs": [],
      "name": "getAllDocuments",
      "outputs": [
        {
          "internalType": "string[]",
          "name": "",
          "type": "string[]"
        }
      ],
      "stateMutability": "view",
      "type": "function"
    },
    {
      "inputs": [],
      "name": "getBaseInformation",
      "outputs": [
        {
          "internalType": "address",
          "name": "token",
          "type": "address"
        },
        {
          "internalType": "uint64",
          "name": "startTime",
          "type": "uint64"
        },
        {
          "internalType": "uint64",
          "name": "endTime",
          "type": "uint64"
        },
        {
          "internalType": "bool",
          "name": "marketFinalized",
          "type": "bool"
        }
      ],
      "stateMutability": "view",
      "type": "function"
    },
    {
      "inputs": [
        {
          "internalType": "address",
          "name": "_funder",
          "type": "address"
        },
        {
          "internalType": "address",
          "name": "_token",
          "type": "address"
        },
        {
          "internalType": "uint256",
          "name": "_totalTokens",
          "type": "uint256"
        },
        {
          "internalType": "uint256",
          "name": "_startTime",
          "type": "uint256"
        },
        {
          "internalType": "uint256",
          "name": "_endTime",
          "type": "uint256"
        },
        {
          "internalType": "address",
          "name": "_paymentCurrency",
          "type": "address"
        },
        {
          "internalType": "uint256",
          "name": "_minimumCommitmentAmount",
          "type": "uint256"
        },
        {
          "internalType": "address",
          "name": "_admin",
          "type": "address"
        },
        {
          "internalType": "address",
          "name": "_pointList",
          "type": "address"
        },
        {
          "internalType": "address payable",
          "name": "_wallet",
          "type": "address"
        }
      ],
      "name": "getBatchAuctionInitData",
      "outputs": [
        {
          "internalType": "bytes",
          "name": "_data",
          "type": "bytes"
        }
      ],
      "stateMutability": "pure",
      "type": "function"
    },
    {
      "inputs": [
        {
          "internalType": "string",
          "name": "_name",
          "type": "string"
        }
      ],
      "name": "getDocument",
      "outputs": [
        {
          "internalType": "string",
          "name": "",
          "type": "string"
        },
        {
          "internalType": "uint256",
          "name": "",
          "type": "uint256"
        }
      ],
      "stateMutability": "view",
      "type": "function"
    },
    {
      "inputs": [],
      "name": "getDocumentCount",
      "outputs": [
        {
          "internalType": "uint256",
          "name": "",
          "type": "uint256"
        }
      ],
      "stateMutability": "view",
      "type": "function"
    },
    {
      "inputs": [
        {
          "internalType": "uint256",
          "name": "_index",
          "type": "uint256"
        }
      ],
      "name": "getDocumentName",
      "outputs": [
        {
          "internalType": "string",
          "name": "",
          "type": "string"
        }
      ],
      "stateMutability": "view",
      "type": "function"
    },
    {
      "inputs": [],
      "name": "getEndTiime",
      "outputs": [
        {
          "internalType": "uint256",
          "name": "",
          "type": "uint256"
        }
      ],
      "stateMutability": "view",
      "type": "function"
    },
    {
      "inputs": [
        {
          "internalType": "bytes32",
          "name": "role",
          "type": "bytes32"
        }
      ],
      "name": "getRoleAdmin",
      "outputs": [
        {
          "internalType": "bytes32",
          "name": "",
          "type": "bytes32"
        }
      ],
      "stateMutability": "view",
      "type": "function"
    },
    {
      "inputs": [
        {
          "internalType": "bytes32",
          "name": "role",
          "type": "bytes32"
        },
        {
          "internalType": "uint256",
          "name": "index",
          "type": "uint256"
        }
      ],
      "name": "getRoleMember",
      "outputs": [
        {
          "internalType": "address",
          "name": "",
          "type": "address"
        }
      ],
      "stateMutability": "view",
      "type": "function"
    },
    {
      "inputs": [
        {
          "internalType": "bytes32",
          "name": "role",
          "type": "bytes32"
        }
      ],
      "name": "getRoleMemberCount",
      "outputs": [
        {
          "internalType": "uint256",
          "name": "",
          "type": "uint256"
        }
      ],
      "stateMutability": "view",
      "type": "function"
    },
    {
      "inputs": [],
      "name": "getTotalTokens",
      "outputs": [
        {
          "internalType": "uint256",
          "name": "",
          "type": "uint256"
        }
      ],
      "stateMutability": "view",
      "type": "function"
    },
    {
      "inputs": [
        {
          "internalType": "bytes32",
          "name": "role",
          "type": "bytes32"
        },
        {
          "internalType": "address",
          "name": "account",
          "type": "address"
        }
      ],
      "name": "grantRole",
      "outputs": [],
      "stateMutability": "nonpayable",
      "type": "function"
    },
    {
      "inputs": [
        {
          "internalType": "address",
          "name": "_address",
          "type": "address"
        }
      ],
      "name": "hasAdminRole",
      "outputs": [
        {
          "internalType": "bool",
          "name": "",
          "type": "bool"
        }
      ],
      "stateMutability": "view",
      "type": "function"
    },
    {
      "inputs": [
        {
          "internalType": "address",
          "name": "_address",
          "type": "address"
        }
      ],
      "name": "hasMinterRole",
      "outputs": [
        {
          "internalType": "bool",
          "name": "",
          "type": "bool"
        }
      ],
      "stateMutability": "view",
      "type": "function"
    },
    {
      "inputs": [
        {
          "internalType": "address",
          "name": "_address",
          "type": "address"
        }
      ],
      "name": "hasOperatorRole",
      "outputs": [
        {
          "internalType": "bool",
          "name": "",
          "type": "bool"
        }
      ],
      "stateMutability": "view",
      "type": "function"
    },
    {
      "inputs": [
        {
          "internalType": "bytes32",
          "name": "role",
          "type": "bytes32"
        },
        {
          "internalType": "address",
          "name": "account",
          "type": "address"
        }
      ],
      "name": "hasRole",
      "outputs": [
        {
          "internalType": "bool",
          "name": "",
          "type": "bool"
        }
      ],
      "stateMutability": "view",
      "type": "function"
    },
    {
      "inputs": [
        {
          "internalType": "address",
          "name": "_address",
          "type": "address"
        }
      ],
      "name": "hasSmartContractRole",
      "outputs": [
        {
          "internalType": "bool",
          "name": "",
          "type": "bool"
        }
      ],
      "stateMutability": "view",
      "type": "function"
    },
    {
      "inputs": [
        {
          "internalType": "bytes",
          "name": "_data",
          "type": "bytes"
        }
      ],
      "name": "init",
      "outputs": [],
      "stateMutability": "payable",
      "type": "function"
    },
    {
      "inputs": [
        {
          "internalType": "address",
          "name": "_admin",
          "type": "address"
        }
      ],
      "name": "initAccessControls",
      "outputs": [],
      "stateMutability": "nonpayable",
      "type": "function"
    },
    {
      "inputs": [
        {
          "internalType": "address",
          "name": "_funder",
          "type": "address"
        },
        {
          "internalType": "address",
          "name": "_token",
          "type": "address"
        },
        {
          "internalType": "uint256",
          "name": "_totalTokens",
          "type": "uint256"
        },
        {
          "internalType": "uint256",
          "name": "_startTime",
          "type": "uint256"
        },
        {
          "internalType": "uint256",
          "name": "_endTime",
          "type": "uint256"
        },
        {
          "internalType": "address",
          "name": "_paymentCurrency",
          "type": "address"
        },
        {
          "internalType": "uint256",
          "name": "_minimumCommitmentAmount",
          "type": "uint256"
        },
        {
          "internalType": "address",
          "name": "_admin",
          "type": "address"
        },
        {
          "internalType": "address",
          "name": "_pointList",
          "type": "address"
        },
        {
          "internalType": "address payable",
          "name": "_wallet",
          "type": "address"
        }
      ],
      "name": "initAuction",
      "outputs": [],
      "stateMutability": "nonpayable",
      "type": "function"
    },
    {
      "inputs": [
        {
          "internalType": "bytes",
          "name": "_data",
          "type": "bytes"
        }
      ],
      "name": "initMarket",
      "outputs": [],
      "stateMutability": "nonpayable",
      "type": "function"
    },
    {
      "inputs": [],
      "name": "marketInfo",
      "outputs": [
        {
          "internalType": "uint64",
          "name": "startTime",
          "type": "uint64"
        },
        {
          "internalType": "uint64",
          "name": "endTime",
          "type": "uint64"
        },
        {
          "internalType": "uint128",
          "name": "totalTokens",
          "type": "uint128"
        }
      ],
      "stateMutability": "view",
      "type": "function"
    },
    {
      "inputs": [],
      "name": "marketParticipationAgreement",
      "outputs": [
        {
          "internalType": "string",
          "name": "",
          "type": "string"
        }
      ],
      "stateMutability": "pure",
      "type": "function"
    },
    {
      "inputs": [],
      "name": "marketStatus",
      "outputs": [
        {
          "internalType": "uint128",
          "name": "commitmentsTotal",
          "type": "uint128"
        },
        {
          "internalType": "uint128",
          "name": "minimumCommitmentAmount",
          "type": "uint128"
        },
        {
          "internalType": "bool",
          "name": "finalized",
          "type": "bool"
        },
        {
          "internalType": "bool",
          "name": "usePointList",
          "type": "bool"
        }
      ],
      "stateMutability": "view",
      "type": "function"
    },
    {
      "inputs": [],
      "name": "marketTemplate",
      "outputs": [
        {
          "internalType": "uint256",
          "name": "",
          "type": "uint256"
        }
      ],
      "stateMutability": "view",
      "type": "function"
    },
    {
      "inputs": [],
      "name": "paymentCurrency",
      "outputs": [
        {
          "internalType": "address",
          "name": "",
          "type": "address"
        }
      ],
      "stateMutability": "view",
      "type": "function"
    },
    {
      "inputs": [
        {
          "internalType": "contract IERC20",
          "name": "token",
          "type": "address"
        },
        {
          "internalType": "address",
          "name": "from",
          "type": "address"
        },
        {
          "internalType": "address",
          "name": "to",
          "type": "address"
        },
        {
          "internalType": "uint256",
          "name": "amount",
          "type": "uint256"
        },
        {
          "internalType": "uint256",
          "name": "deadline",
          "type": "uint256"
        },
        {
          "internalType": "uint8",
          "name": "v",
          "type": "uint8"
        },
        {
          "internalType": "bytes32",
          "name": "r",
          "type": "bytes32"
        },
        {
          "internalType": "bytes32",
          "name": "s",
          "type": "bytes32"
        }
      ],
      "name": "permitToken",
      "outputs": [],
      "stateMutability": "nonpayable",
      "type": "function"
    },
    {
      "inputs": [],
      "name": "pointList",
      "outputs": [
        {
          "internalType": "address",
          "name": "",
          "type": "address"
        }
      ],
      "stateMutability": "view",
      "type": "function"
    },
    {
      "inputs": [
        {
          "internalType": "address",
          "name": "_address",
          "type": "address"
        }
      ],
      "name": "removeAdminRole",
      "outputs": [],
      "stateMutability": "nonpayable",
      "type": "function"
    },
    {
      "inputs": [
        {
          "internalType": "string",
          "name": "_name",
          "type": "string"
        }
      ],
      "name": "removeDocument",
      "outputs": [],
      "stateMutability": "nonpayable",
      "type": "function"
    },
    {
      "inputs": [
        {
          "internalType": "address",
          "name": "_address",
          "type": "address"
        }
      ],
      "name": "removeMinterRole",
      "outputs": [],
      "stateMutability": "nonpayable",
      "type": "function"
    },
    {
      "inputs": [
        {
          "internalType": "address",
          "name": "_address",
          "type": "address"
        }
      ],
      "name": "removeOperatorRole",
      "outputs": [],
      "stateMutability": "nonpayable",
      "type": "function"
    },
    {
      "inputs": [
        {
          "internalType": "address",
          "name": "_address",
          "type": "address"
        }
      ],
      "name": "removeSmartContractRole",
      "outputs": [],
      "stateMutability": "nonpayable",
      "type": "function"
    },
    {
      "inputs": [
        {
          "internalType": "bytes32",
          "name": "role",
          "type": "bytes32"
        },
        {
          "internalType": "address",
          "name": "account",
          "type": "address"
        }
      ],
      "name": "renounceRole",
      "outputs": [],
      "stateMutability": "nonpayable",
      "type": "function"
    },
    {
      "inputs": [
        {
          "internalType": "bytes32",
          "name": "role",
          "type": "bytes32"
        },
        {
          "internalType": "address",
          "name": "account",
          "type": "address"
        }
      ],
      "name": "revokeRole",
      "outputs": [],
      "stateMutability": "nonpayable",
      "type": "function"
    },
    {
      "inputs": [
        {
          "internalType": "uint256",
          "name": "_minimumCommitmentAmount",
          "type": "uint256"
        }
      ],
      "name": "setAuctionPrice",
      "outputs": [],
      "stateMutability": "nonpayable",
      "type": "function"
    },
    {
      "inputs": [
        {
          "internalType": "uint256",
          "name": "_startTime",
          "type": "uint256"
        },
        {
          "internalType": "uint256",
          "name": "_endTime",
          "type": "uint256"
        }
      ],
      "name": "setAuctionTime",
      "outputs": [],
      "stateMutability": "nonpayable",
      "type": "function"
    },
    {
      "inputs": [
        {
          "internalType": "address payable",
          "name": "_wallet",
          "type": "address"
        }
      ],
      "name": "setAuctionWallet",
      "outputs": [],
      "stateMutability": "nonpayable",
      "type": "function"
    },
    {
      "inputs": [
        {
          "internalType": "string",
          "name": "_name",
          "type": "string"
        },
        {
          "internalType": "string",
          "name": "_data",
          "type": "string"
        }
      ],
      "name": "setDocument",
      "outputs": [],
      "stateMutability": "nonpayable",
      "type": "function"
    },
    {
      "inputs": [
        {
          "internalType": "string[]",
          "name": "_name",
          "type": "string[]"
        },
        {
          "internalType": "string[]",
          "name": "_data",
          "type": "string[]"
        }
      ],
      "name": "setDocuments",
      "outputs": [],
      "stateMutability": "nonpayable",
      "type": "function"
    },
    {
      "inputs": [
        {
          "internalType": "address",
          "name": "_list",
          "type": "address"
        }
      ],
      "name": "setList",
      "outputs": [],
      "stateMutability": "nonpayable",
      "type": "function"
    },
    {
      "inputs": [],
      "name": "tokenPrice",
      "outputs": [
        {
          "internalType": "uint256",
          "name": "",
          "type": "uint256"
        }
      ],
      "stateMutability": "view",
      "type": "function"
    },
    {
      "inputs": [
        {
          "internalType": "address",
          "name": "_user",
          "type": "address"
        }
      ],
      "name": "tokensClaimable",
      "outputs": [
        {
          "internalType": "uint256",
          "name": "claimerCommitment",
          "type": "uint256"
        }
      ],
      "stateMutability": "view",
      "type": "function"
    },
    {
      "inputs": [],
      "name": "wallet",
      "outputs": [
        {
          "internalType": "address payable",
          "name": "",
          "type": "address"
        }
      ],
      "stateMutability": "view",
      "type": "function"
    },
    {
      "inputs": [
        {
          "internalType": "address payable",
          "name": "beneficiary",
          "type": "address"
        }
      ],
      "name": "withdrawTokens",
      "outputs": [],
      "stateMutability": "nonpayable",
      "type": "function"
    },
    {
      "inputs": [],
      "name": "withdrawTokens",
      "outputs": [],
      "stateMutability": "nonpayable",
      "type": "function"
    },
    {
      "stateMutability": "payable",
      "type": "receive"
    }
  ],
  "transactionHash": "0x1602b31aab716980e517cf93693a33c2d6fd8db96f6bb6f2dc5124418107d2c5",
  "args": [],
  "numDeployments": 1,
  "solcInputHash": "c93569f48fb8f42fc87c61ea2da3bc2e",
  "bytecode": "0x608060405234801561001057600080fd5b506001600555614b9e806100256000396000f3fe6080604052600436106103f35760003560e01c80638a845fc011610208578063c92bce8711610118578063dde51f6d116100ab578063f04899d31161007a578063f04899d314610b63578063f08b82e614610b78578063f5b541a614610b8d578063f910691314610ba2578063fc4e3e0a14610bc257610402565b8063dde51f6d14610ade578063e0e081d714610afe578063e6594abd14610b23578063e8fcf72314610b4357610402565b8063d547741f116100e7578063d547741f14610a5e578063d69d3e6214610a7e578063dc97e08214610a9e578063dccfe31014610abe57610402565b8063c92bce87146109e8578063ca15c87314610a08578063d2423b5114610a28578063d539139314610a4957610402565b80639c64d0ae1161019b578063b3f05b971161016a578063b3f05b9714610953578063b7928b1d14610968578063c395fcb314610988578063c6b547e6146109a8578063c884ef83146109c857610402565b80639c64d0ae146108dc5780639fa5f50b146108fc578063a217fddf1461091e578063adbf37761461093357610402565b806391d14854116101d757806391d14854146108675780639478941c1461088757806399fdb320146108a75780639a87222c146108bc57610402565b80638a845fc0146107fd5780638d8f2adb1461081d5780638fa8b790146108325780639010d07c1461084757610402565b806349df728c116103035780636ae260c1116102965780637ccb6a64116102655780637ccb6a64146107705780637ff9b5961461079e57806381353c8e146107b3578063857d2608146107d357806386433374146107e857610402565b80636ae260c1146106ee57806374cf9fc51461070e5780637525b0bd146107305780637c516e941461075057610402565b80634ddf47d4116102d25780634ddf47d414610686578063521eb2731461069957806354f1e126146106ae5780636595171c146106ce57610402565b806349df728c146106115780634b3e6abb146106315780634bb278f3146106515780634dc80e151461066657610402565b8063297629601161038657806336d0054b1161035557806336d0054b146105855780633b33fe731461059a5780633d15cc6d146105ba5780633d1c2273146105dc5780633f16431a146105f157610402565b8063297629601461050d5780632f2ff15d14610520578063314148e21461054057806336568abe1461056557610402565b806317026455116103c257806317026455146104a35780631b3e460e146104b8578063212f8a81146104cd578063248a9ca3146104ed57610402565b8063031bee001461040757806308db2ab914610434578063099db01714610456578063113b0ab21461048357610402565b3661040257610400610be2565b005b600080fd5b34801561041357600080fd5b5061041c610c03565b60405161042b939291906148b3565b60405180910390f35b34801561044057600080fd5b50610449610c30565b60405161042b9190613c4e565b34801561046257600080fd5b50610476610471366004613447565b610c46565b60405161042b9190613c43565b34801561048f57600080fd5b5061047661049e366004613447565b610c68565b3480156104af57600080fd5b50610476610c82565b3480156104c457600080fd5b50610449610ca0565b3480156104d957600080fd5b506104006104e836600461354d565b610ca5565b3480156104f957600080fd5b50610449610508366004613677565b610d64565b61040061051b366004613515565b610d79565b34801561052c57600080fd5b5061040061053b36600461368f565b610e1f565b34801561054c57600080fd5b50610555610e63565b60405161042b9493929190613b17565b34801561057157600080fd5b5061040061058036600461368f565b610e94565b34801561059157600080fd5b50610476610ed6565b3480156105a657600080fd5b506104006105b5366004613677565b610f0c565b3480156105c657600080fd5b506105cf610fa8565b60405161042b91906139ab565b3480156105e857600080fd5b50610449610fb7565b3480156105fd57600080fd5b5061040061060c366004613447565b610fbd565b34801561061d57600080fd5b5061040061062c366004613447565b610fd8565b34801561063d57600080fd5b5061040061064c36600461363f565b6111b9565b34801561065d57600080fd5b50610400611227565b34801561067257600080fd5b50610449610681366004613447565b611468565b6104006106943660046136d4565b610e1b565b3480156106a557600080fd5b506105cf61156e565b3480156106ba57600080fd5b506104006106c9366004613447565b61157d565b3480156106da57600080fd5b506104006106e9366004613447565b611595565b3480156106fa57600080fd5b506104006107093660046136b3565b6115a0565b34801561071a57600080fd5b506107236116ff565b60405161042b9190613c57565b34801561073c57600080fd5b5061040061074b36600461346a565b611722565b34801561075c57600080fd5b5061040061076b366004613713565b611b09565b34801561077c57600080fd5b5061079061078b3660046136d4565b611b7d565b60405161042b929190613c99565b3480156107aa57600080fd5b50610449611c6a565b3480156107bf57600080fd5b506104006107ce3660046136d4565b611ca3565b3480156107df57600080fd5b50610449611ce0565b3480156107f457600080fd5b50610476611cf2565b34801561080957600080fd5b50610400610818366004613447565b611d0a565b34801561082957600080fd5b50610400611d22565b34801561083e57600080fd5b50610400611d2d565b34801561085357600080fd5b506105cf6108623660046136b3565b611e74565b34801561087357600080fd5b5061047661088236600461368f565b611e95565b34801561089357600080fd5b506104006108a2366004613447565b611ead565b3480156108b357600080fd5b506105cf611ec5565b3480156108c857600080fd5b506104006108d7366004613447565b611ed4565b3480156108e857600080fd5b506104006108f7366004613795565b611f57565b34801561090857600080fd5b50610911611f7b565b60405161042b9190613be3565b34801561092a57600080fd5b50610449612053565b34801561093f57600080fd5b5061040061094e366004613447565b612058565b34801561095f57600080fd5b50610476612070565b34801561097457600080fd5b50610400610983366004613447565b612079565b34801561099457600080fd5b506104766109a3366004613447565b612091565b3480156109b457600080fd5b506107236109c3366004613677565b61209d565b3480156109d457600080fd5b506104496109e3366004613447565b612168565b3480156109f457600080fd5b50610400610a033660046135d7565b61217a565b348015610a1457600080fd5b50610449610a23366004613677565b6121ec565b610a3b610a3636600461358e565b612203565b60405161042b929190613b49565b348015610a5557600080fd5b50610449612393565b348015610a6a57600080fd5b50610400610a7936600461368f565b6123a5565b348015610a8a57600080fd5b50610400610a99366004613447565b6123df565b348015610aaa57600080fd5b50610400610ab93660046138a3565b6123fa565b348015610aca57600080fd5b50610400610ad9366004613447565b612405565b348015610aea57600080fd5b50610400610af93660046136d4565b612410565b348015610b0a57600080fd5b50610b1361242c565b60405161042b949392919061487a565b348015610b2f57600080fd5b50610400610b3e366004613447565b612456565b348015610b4f57600080fd5b50610449610b5e366004613447565b6124b9565b348015610b6f57600080fd5b506105cf6124cb565b348015610b8457600080fd5b506104496124da565b348015610b9957600080fd5b506104496124f0565b348015610bae57600080fd5b50610723610bbd36600461346a565b612502565b348015610bce57600080fd5b50610476610bdd366004613447565b612546565b60405162461bcd60e51b8152600401610bfa90613f37565b60405180910390fd5b6006546001600160401b0380821691600160401b810490911690600160801b90046001600160801b031683565b600654600160401b90046001600160401b031690565b6000610c606000805160206149ee83398151915283611e95565b90505b919050565b6000610c6060008051602061498e83398151915283611e95565b60065442600160401b9091046001600160401b031662093a80011090565b600381565b60026005541415610cc85760405162461bcd60e51b8152600401610bfa9061470d565b6002600555600a546001600160a01b031673eeeeeeeeeeeeeeeeeeeeeeeeeeeeeeeeeeeeeeee1415610d0c5760405162461bcd60e51b8152600401610bfa90614744565b80610d1957610d19610be2565b60008211610d395760405162461bcd60e51b8152600401610bfa90614507565b600a54610d50906001600160a01b03163384612560565b610d5a838361263d565b5050600160055550565b60009081526020819052604090206002015490565b600a546001600160a01b031673eeeeeeeeeeeeeeeeeeeeeeeeeeeeeeeeeeeeeeee14610db75760405162461bcd60e51b8152600401610bfa90614476565b60003411610dd75760405162461bcd60e51b8152600401610bfa90614507565b80610de457610de4610be2565b610dee823461263d565b600754476001600160801b039091161115610e1b5760405162461bcd60e51b8152600401610bfa90613ee4565b5050565b600082815260208190526040902060020154610e3d906108826127e9565b610e595760405162461bcd60e51b8152600401610bfa90613de3565b610e1b82826127ed565b6009546006546008546001600160a01b03909216926001600160401b0380831693600160401b909304169160ff1690565b610e9c6127e9565b6001600160a01b0316816001600160a01b031614610ecc5760405162461bcd60e51b8152600401610bfa906147fd565b610e1b8282612856565b6007546000906001600160801b03600160801b82048116911610801590610f0757506007546001600160801b031615155b905090565b610f1533612091565b610f1e57600080fd5b6007546001600160801b031615610f475760405162461bcd60e51b8152600401610bfa906143a3565b610f50816128bf565b600780546001600160801b03928316600160801b0292169190911790556040517f1fd3f6b4312b53d1521fb9dab5af66131ff5b6141870420ded20e5ffb42f6cf290610f9d908390613c4e565b60405180910390a150565b600a546001600160a01b031681565b60045490565b610fd560008051602061498e83398151915282610e1f565b50565b60026005541415610ffb5760405162461bcd60e51b8152600401610bfa9061470d565b6002600555611008610ed6565b156110e85760085460ff1661102f5760405162461bcd60e51b8152600401610bfa9061431f565b600061103a82611468565b90506000811161105c5760405162461bcd60e51b8152600401610bfa906147c8565b6001600160a01b0382166000908152600e602052604090205461107f90826128ec565b6001600160a01b038084166000908152600e60205260409020919091556009546110ab9116838361290f565b6009546040516000805160206149ae833981519152916110da916001600160a01b0390911690859085906139eb565b60405180910390a1506111b1565b600654600160401b90046001600160401b031642116111195760405162461bcd60e51b8152600401610bfa90614258565b6001600160a01b0381166000908152600d60205260409020548061114f5760405162461bcd60e51b8152600401610bfa906141ec565b6001600160a01b038083166000908152600d6020526040812055600a546111789116838361290f565b600a546040516000805160206149ae833981519152916111a7916001600160a01b0390911690859085906139eb565b60405180910390a1505b506001600555565b6111c233612091565b6111cb57600080fd5b6008805461ff00191661010083151581029190911791829055600b546040517f2df0f5b650a168c74b406dcccc513b8e68da86ce7bcb0654ee83b2ac47be5b3f93610f9d936001600160a01b039093169260ff91041690613ae3565b6002600554141561124a5760405162461bcd60e51b8152600401610bfa9061470d565b600260055561125833612091565b8061126d5750600c546001600160a01b031633145b8061127c575061127c33610c68565b8061128a575061128a610c82565b6112a65760405162461bcd60e51b8152600401610bfa906145c0565b60085460ff16156112c95760405162461bcd60e51b8152600401610bfa90613e99565b600654600160801b90046001600160801b03166112f85760405162461bcd60e51b8152600401610bfa90614145565b600654600160401b90046001600160401b031642116113295760405162461bcd60e51b8152600401610bfa90614258565b611331610ed6565b156113ac57600a54600c5460075461135f926001600160a01b039081169216906001600160801b031661290f565b600a54600c546007546040516000805160206149ae8339815191529361139f936001600160a01b03918216939116916001600160801b03909116906139eb565b60405180910390a161142b565b600954600c546006546113dc926001600160a01b03908116921690600160801b90046001600160801b031661290f565b600954600c546006546040516000805160206149ae83398151915293611422936001600160a01b0391821693911691600160801b9091046001600160801b0316906139bf565b60405180910390a15b6008805460ff191660011790556040517f32bebcfd2d04dbae321298091d96d2cb1d07279f59718cd83bd98245b8b82b5a90600090a16001600555565b6001600160a01b0381166000908152600d602052604081205461148d57506000610c63565b6009546040516370a0823160e01b81526000916001600160a01b0316906370a08231906114be9030906004016139ab565b60206040518083038186803b1580156114d657600080fd5b505afa1580156114ea573d6000803e3d6000fd5b505050506040513d601f19601f8201168201806040525081019061150e919061388b565b6001600160a01b0384166000908152600d602052604090205490915061153390612953565b6001600160a01b0384166000908152600e602052604090205490925061155a90839061298b565b915080821115611568578091505b50919050565b600c546001600160a01b031681565b610fd56000805160206149ee833981519152826123a5565b610fd5600082610e1f565b6115a933612091565b6115b257600080fd5b6402540be40082106115d65760405162461bcd60e51b8152600401610bfa90613e32565b6402540be40081106115fa5760405162461bcd60e51b8152600401610bfa90613e32565b4282101561161a5760405162461bcd60e51b8152600401610bfa906146be565b8181116116395760405162461bcd60e51b8152600401610bfa90614069565b6007546001600160801b0316156116625760405162461bcd60e51b8152600401610bfa906143a3565b61166b826129ae565b6006805467ffffffffffffffff19166001600160401b0392909216919091179055611695816129ae565b600680546001600160401b0392909216600160401b0267ffffffffffffffff60401b199092169190911790556040517f5725d1e4352d6944889e54837ffaefde55cdc0b55796b831365d61cd4c87fdb8906116f390849084906148a5565b60405180910390a15050565b606060405180610180016040528061015b8152602001614a0e61015b9139905090565b6402540be40086106117465760405162461bcd60e51b8152600401610bfa90613e32565b428710156117665760405162461bcd60e51b8152600401610bfa906146be565b8686116117855760405162461bcd60e51b8152600401610bfa90613fe6565b600088116117a55760405162461bcd60e51b8152600401610bfa906142cb565b6001600160a01b0383166117cb5760405162461bcd60e51b8152600401610bfa9061416e565b6001600160a01b0381166117f15760405162461bcd60e51b8152600401610bfa906144bf565b886001600160a01b031663313ce5676040518163ffffffff1660e01b815260040160206040518083038186803b15801561182a57600080fd5b505afa15801561183e573d6000803e3d6000fd5b505050506040513d601f19601f8201168201806040525081019061186291906138c7565b60ff166012146118845760405162461bcd60e51b8152600401610bfa90614356565b6001600160a01b03851673eeeeeeeeeeeeeeeeeeeeeeeeeeeeeeeeeeeeeeee1461193b576000856001600160a01b031663313ce5676040518163ffffffff1660e01b815260040160206040518083038186803b1580156118e357600080fd5b505afa1580156118f7573d6000803e3d6000fd5b505050506040513d601f19601f8201168201806040525081019061191b91906138c7565b60ff161161193b5760405162461bcd60e51b8152600401610bfa906143f4565b611944846128bf565b600780546001600160801b03928316600160801b02921691909117905561196a876129ae565b6006805467ffffffffffffffff19166001600160401b0392909216919091179055611994866129ae565b600680546001600160401b0392909216600160401b0267ffffffffffffffff60401b199092169190911790556119c9886128bf565b600680546001600160801b03928316600160801b029216919091179055600980546001600160a01b03808c166001600160a01b031992831617909255600a8054888416908316179055600c805492841692909116919091179055611a2c83612456565b611a35826129d7565b600954611a4c906001600160a01b03168b8a612560565b7f7824ca06acdd8331a93fac9d8f97849b46c2d30748d7320b0d3a8173320b1f3a8a8a8a888786604051611a8596959493929190613a0f565b60405180910390a17f5725d1e4352d6944889e54837ffaefde55cdc0b55796b831365d61cd4c87fdb88787604051611abe9291906148a5565b60405180910390a17f1fd3f6b4312b53d1521fb9dab5af66131ff5b6141870420ded20e5ffb42f6cf284604051611af59190613c4e565b60405180910390a150505050505050505050565b60405163d505accf60e01b81526001600160a01b0389169063d505accf90611b41908a908a908a908a908a908a908a90600401613aa2565b600060405180830381600087803b158015611b5b57600080fd5b505af1158015611b6f573d6000803e3d6000fd5b505050505050505050505050565b6060600060028484604051611b9392919061390f565b908152602001604051809103902060010160028585604051611bb692919061390f565b908152604080516020928190038301812054845460026101006001831615026000190190911604601f810185900485028301850190935282825264010000000090046001600160401b03169290918491830182828015611c575780601f10611c2c57610100808354040283529160200191611c57565b820191906000526020600020905b815481529060010190602001808311611c3a57829003601f168201915b50505050509150915091505b9250929050565b600654600754600091610f07916001600160801b03600160801b909204821691611c9d9116670de0b6b3a7640000612a4f565b90612a86565b6000808080808080808080611cba8b8d018d61346a565b9950995099509950995099509950995099509950611b6f8a8a8a8a8a8a8a8a8a8a611722565b60008051602061498e83398151915281565b600654600160401b90046001600160401b0316421190565b610fd560008051602061498e833981519152826123a5565b611d2b33610fd8565b565b60026005541415611d505760405162461bcd60e51b8152600401610bfa9061470d565b6002600555611d5e33612091565b611d6757600080fd5b60085460079060ff1615611d8d5760405162461bcd60e51b8152600401610bfa90613faf565b80546001600160801b031615611db55760405162461bcd60e51b8152600401610bfa90614639565b600954600c54600654611de5926001600160a01b03908116921690600160801b90046001600160801b031661290f565b6001818101805460ff191690911790556040517fa5fb31e47bd1eca58bf14a3312d5e6aeafdc4ee787c8ed348c15c2b092324d9390600090a1600954600c546006546040516000805160206149ae83398151915293611e64936001600160a01b0391821693911691600160801b9091046001600160801b0316906139eb565b60405180910390a1506001600555565b6000828152602081905260408120611e8c9083612ab8565b90505b92915050565b6000828152602081905260408120611e8c9083612ac4565b610fd56000805160206149ce833981519152826123a5565b6009546001600160a01b031681565b611edd33612091565b611ee657600080fd5b6001600160a01b038116611f0c5760405162461bcd60e51b8152600401610bfa906144bf565b600c80546001600160a01b0319166001600160a01b0383161790556040517f34ae2bad9265f0212d4cf341708b8250949164bb54f9d0e4f442024f83bb2f9090610f9d9083906139ab565b611f6033612091565b611f6957600080fd5b611f7584848484612ad9565b50505050565b60606004805480602002602001604051908101604052809291908181526020016000905b8282101561204a5760008481526020908190208301805460408051601f60026000196101006001871615020190941693909304928301859004850281018501909152818152928301828280156120365780601f1061200b57610100808354040283529160200191612036565b820191906000526020600020905b81548152906001019060200180831161201957829003601f168201915b505050505081526020019060010190611f9f565b50505050905090565b600081565b610fd56000805160206149ee83398151915282610e1f565b60085460ff1690565b610fd56000805160206149ce83398151915282610e1f565b6000610c608183611e95565b60045460609082106120c15760405162461bcd60e51b8152600401610bfa90614593565b600482815481106120ce57fe5b600091825260209182902001805460408051601f600260001961010060018716150201909416939093049283018590048502810185019091528181529283018282801561215c5780601f106121315761010080835404028352916020019161215c565b820191906000526020600020905b81548152906001019060200180831161213f57829003601f168201915b50505050509050919050565b600e6020526000908152604090205481565b61218333612091565b61218c57600080fd5b8260005b818110156121e4576121dc8686838181106121a757fe5b90506020028101906121b991906148df565b8686858181106121c557fe5b90506020028101906121d791906148df565b612ad9565b600101612190565b505050505050565b6000818152602081905260408120610c6090612d2b565b606080836001600160401b038111801561221c57600080fd5b50604051908082528060200260200182016040528015612246578160200160208202803683370190505b509150836001600160401b038111801561225f57600080fd5b5060405190808252806020026020018201604052801561229357816020015b606081526020019060019003908161227e5790505b50905060005b8481101561238a5760006060308888858181106122b257fe5b90506020028101906122c491906148df565b6040516122d292919061390f565b600060405180830381855af49150503d806000811461230d576040519150601f19603f3d011682016040523d82523d6000602084013e612312565b606091505b50915091508180612321575085155b61232a82612d36565b906123485760405162461bcd60e51b8152600401610bfa9190613c57565b508185848151811061235657fe5b6020026020010190151590811515815250508084848151811061237557fe5b60209081029190910101525050600101612299565b50935093915050565b6000805160206149ee83398151915281565b6000828152602081905260409020600201546123c3906108826127e9565b610ecc5760405162461bcd60e51b8152600401610bfa906140f5565b6123e833612091565b6123f157600080fd5b610fd5816129d7565b610e1b338383610ca5565b610fd56000826123a5565b61241933612091565b61242257600080fd5b610e1b8282612d96565b6007546008546001600160801b0380831692600160801b9004169060ff8082169161010090041684565b60015460ff16156124795760405162461bcd60e51b8152600401610bfa90613d74565b6001600160a01b03811661249f5760405162461bcd60e51b8152600401610bfa906142a2565b6124aa600082610e59565b506001805460ff191681179055565b600d6020526000908152604090205481565b600b546001600160a01b031681565b600654600160801b90046001600160801b031690565b6000805160206149ce83398151915281565b60608a8a8a8a8a8a8a8a8a8a6040516020016125279a99989796959493929190613a49565b60405160208183030381529060405290509a9950505050505050505050565b6000610c606000805160206149ce83398151915283611e95565b60006060846001600160a01b03166323b872dd853086604051602401612588939291906139eb565b6040516020818303038152906040529060e01b6020820180516001600160e01b0383818316178352505050506040516125c1919061391f565b6000604051808303816000865af19150503d80600081146125fe576040519150601f19603f3d011682016040523d82523d6000602084013e612603565b606091505b509150915081801561262d57508051158061262d57508080602001905181019061262d919061365b565b61263657600080fd5b5050505050565b6006546001600160401b0316421080159061266a5750600654600160401b90046001600160401b03164211155b6126865760405162461bcd60e51b8152600401610bfa9061467b565b6001600160a01b0382166000908152600d60205260408120546126a990836128ec565b600854909150610100900460ff161561274757600b54604051631cd53d5560e01b81526001600160a01b0390911690631cd53d55906126ee9086908590600401613afe565b60206040518083038186803b15801561270657600080fd5b505afa15801561271a573d6000803e3d6000fd5b505050506040513d601f19601f8201168201806040525081019061273e919061365b565b61274757600080fd5b6001600160a01b0383166000908152600d602052604090208190556007546127819061277c906001600160801b0316846128ec565b6128bf565b600780546fffffffffffffffffffffffffffffffff19166001600160801b03929092169190911790556040517f077511a636ba1f10551cc7b89c13ff66a6ac9344e8a917527817a9690b15af7a906127dc9085908590613afe565b60405180910390a1505050565b3390565b60008281526020819052604090206128059082612fc7565b15610e1b576128126127e9565b6001600160a01b0316816001600160a01b0316837f2f8788117e7eff1d82e926ec794901d17c78024a50270940304540a733656f0d60405160405180910390a45050565b600082815260208190526040902061286e9082612fdc565b15610e1b5761287b6127e9565b6001600160a01b0316816001600160a01b0316837ff6391f5c32d9c69d2a47ea670b442974b53935d1edc7fd64eb21e047a839171b60405160405180910390a45050565b60006001600160801b038211156128e85760405162461bcd60e51b8152600401610bfa906140be565b5090565b81810181811015611e8f5760405162461bcd60e51b8152600401610bfa906141b5565b6001600160a01b03831673eeeeeeeeeeeeeeeeeeeeeeeeeeeeeeeeeeeeeeee14156129435761293e8282612ff1565b61294e565b61294e83838361307e565b505050565b6007546000906001600160801b031661296e57506000610c63565b610c60612979611c6a565b611c9d84670de0b6b3a7640000612a4f565b80820382811115611e8f5760405162461bcd60e51b8152600401610bfa90613d45565b60006001600160401b038211156128e85760405162461bcd60e51b8152600401610bfa9061443f565b6001600160a01b03811615612a1357600b80546001600160a01b0383166001600160a01b03199091161790556008805461ff0019166101001790555b6008546040517f2df0f5b650a168c74b406dcccc513b8e68da86ce7bcb0654ee83b2ac47be5b3f91610f9d918491610100900460ff1690613ae3565b6000811580612a6a57505080820282828281612a6757fe5b04145b611e8f5760405162461bcd60e51b8152600401610bfa90614791565b6000808211612aa75760405162461bcd60e51b8152600401610bfa9061484c565b818381612ab057fe5b049392505050565b6000611e8c83836130a4565b6000611e8c836001600160a01b0384166130e9565b82612af65760405162461bcd60e51b8152600401610bfa90614221565b80612b135760405162461bcd60e51b8152600401610bfa90614602565b60006001600160401b031660028585604051612b3092919061390f565b908152604051908190036020019020546001600160401b03640100000000909104161415612bd65760048054600181018255600091909152612b95907f8a35acfbc15ff81a39ae7d344fd709f28e8600b4aa8c65c6b64bfe7fe36bd19b018585613215565b50600454604051600290612bac908790879061390f565b908152604051908190036020019020805463ffffffff9290921663ffffffff199092169190911790555b604051806060016040528060028686604051612bf392919061390f565b90815260408051602092819003830190205463ffffffff168352426001600160401b0316838301528051601f860183900483028101830182528581529201919085908590819084018382808284376000920191909152505050915250604051600290612c62908790879061390f565b9081526040805191829003602090810190922083518154858501516001600160401b0316640100000000026bffffffffffffffff000000001963ffffffff90931663ffffffff1990921691909117919091161781559083015180519192612cd19260018501929091019061328f565b5050604051612ce491508590859061390f565b60405180910390207fbaa206e5ea800eb88bce099f453fee53295b793b9d5d1cfc4ce4b6db06a34f538383604051612d1d929190613c6a565b60405180910390a250505050565b6000610c6082613101565b6060604482511015612d7c575060408051808201909152601d81527f5472616e73616374696f6e2072657665727465642073696c656e746c790000006020820152610c63565b60048201915081806020019051810190610c6091906137f1565b60006001600160401b031660028383604051612db392919061390f565b908152604051908190036020019020546001600160401b03640100000000909104161415612df35760405162461bcd60e51b8152600401610bfa9061403a565b6000600160028484604051612e0992919061390f565b9081526040519081900360200190205460045463ffffffff918216929092039250821660001990910114612eea57600480546000198101908110612e4957fe5b9060005260206000200160048263ffffffff1681548110612e6657fe5b906000526020600020019080546001816001161561010002031660029004612e8f9291906132fd565b5080600101600260048363ffffffff1681548110612ea957fe5b90600052602060002001604051612ec0919061393b565b908152604051908190036020019020805463ffffffff9290921663ffffffff199092169190911790555b6004805480612ef557fe5b600190038181906000526020600020016000612f119190613372565b90558282604051612f2392919061390f565b60405180910390207f4b5338540b4d1c0f6dd0308a25f633b7ff60472f894d711cff9dd64e35c613b260028585604051612f5e92919061390f565b9081526020016040518091039020600101604051612f7c9190613cbb565b60405180910390a260028383604051612f9692919061390f565b90815260405190819003602001902080546bffffffffffffffffffffffff1916815560006126366001830182613372565b6000611e8c836001600160a01b038416613105565b6000611e8c836001600160a01b03841661314f565b604080516000808252602082019092526001600160a01b03841690839060405161301b919061391f565b60006040518083038185875af1925050503d8060008114613058576040519150601f19603f3d011682016040523d82523d6000602084013e61305d565b606091505b505090508061294e5760405162461bcd60e51b8152600401610bfa90614550565b60006060846001600160a01b031663a9059cbb8585604051602401612588929190613afe565b815460009082106130c75760405162461bcd60e51b8152600401610bfa90613da1565b8260000182815481106130d657fe5b9060005260206000200154905092915050565b60009081526001919091016020526040902054151590565b5490565b600061311183836130e9565b61314757508154600181810184556000848152602080822090930184905584548482528286019093526040902091909155611e8f565b506000611e8f565b6000818152600183016020526040812054801561320b578354600019808301919081019060009087908390811061318257fe5b906000526020600020015490508087600001848154811061319f57fe5b6000918252602080832090910192909255828152600189810190925260409020908401905586548790806131cf57fe5b60019003818190600052602060002001600090559055866001016000878152602001908152602001600020600090556001945050505050611e8f565b6000915050611e8f565b828054600181600116156101000203166002900490600052602060002090601f016020900481019282601f106132565782800160ff19823516178555613283565b82800160010185558215613283579182015b82811115613283578235825591602001919060010190613268565b506128e89291506133b2565b828054600181600116156101000203166002900490600052602060002090601f016020900481019282601f106132d057805160ff1916838001178555613283565b82800160010185558215613283579182015b828111156132835782518255916020019190600101906132e2565b828054600181600116156101000203166002900490600052602060002090601f016020900481019282601f106133365780548555613283565b8280016001018555821561328357600052602060002091601f016020900482015b82811115613283578254825591600101919060010190613357565b50805460018160011615610100020316600290046000825580601f106133985750610fd5565b601f016020900490600052602060002090810190610fd591905b5b808211156128e857600081556001016133b3565b60008083601f8401126133d8578182fd5b5081356001600160401b038111156133ee578182fd5b6020830191508360208083028501011115611c6357600080fd5b60008083601f840112613419578182fd5b5081356001600160401b0381111561342f578182fd5b602083019150836020828501011115611c6357600080fd5b600060208284031215613458578081fd5b81356134638161495b565b9392505050565b6000806000806000806000806000806101408b8d031215613489578586fd5b8a356134948161495b565b995060208b01356134a48161495b565b985060408b0135975060608b0135965060808b0135955060a08b01356134c98161495b565b945060c08b0135935060e08b01356134e08161495b565b92506101008b01356134f18161495b565b91506101208b01356135028161495b565b809150509295989b9194979a5092959850565b60008060408385031215613527578182fd5b82356135328161495b565b9150602083013561354281614970565b809150509250929050565b600080600060608486031215613561578283fd5b833561356c8161495b565b925060208401359150604084013561358381614970565b809150509250925092565b6000806000604084860312156135a2578081fd5b83356001600160401b038111156135b7578182fd5b6135c3868287016133c7565b909450925050602084013561358381614970565b600080600080604085870312156135ec578182fd5b84356001600160401b0380821115613602578384fd5b61360e888389016133c7565b90965094506020870135915080821115613626578384fd5b50613633878288016133c7565b95989497509550505050565b600060208284031215613650578081fd5b813561346381614970565b60006020828403121561366c578081fd5b815161346381614970565b600060208284031215613688578081fd5b5035919050565b600080604083850312156136a1578182fd5b8235915060208301356135428161495b565b600080604083850312156136c5578182fd5b50508035926020909101359150565b600080602083850312156136e6578182fd5b82356001600160401b038111156136fb578283fd5b61370785828601613408565b90969095509350505050565b600080600080600080600080610100898b03121561372f578182fd5b883561373a8161495b565b9750602089013561374a8161495b565b9650604089013561375a8161495b565b9550606089013594506080890135935060a08901356137788161497e565b979a969950949793969295929450505060c08201359160e0013590565b600080600080604085870312156137aa578182fd5b84356001600160401b03808211156137c0578384fd5b6137cc88838901613408565b909650945060208701359150808211156137e4578384fd5b5061363387828801613408565b600060208284031215613802578081fd5b81516001600160401b0380821115613818578283fd5b818401915084601f83011261382b578283fd5b815181811115613839578384fd5b604051601f8201601f191681016020018381118282101715613859578586fd5b604052818152838201602001871015613870578485fd5b61388182602083016020870161492f565b9695505050505050565b60006020828403121561389c578081fd5b5051919050565b600080604083850312156138b5578182fd5b82359150602083013561354281614970565b6000602082840312156138d8578081fd5b81516134638161497e565b600081518084526138fb81602086016020860161492f565b601f01601f19169290920160200192915050565b6000828483379101908152919050565b6000825161393181846020870161492f565b9190910192915050565b600080835460018082166000811461395a5760018114613971576139a0565b60ff198316865260028304607f16860193506139a0565b600283048786526020808720875b838110156139985781548a82015290850190820161397f565b505050860193505b509195945050505050565b6001600160a01b0391909116815260200190565b6001600160a01b0393841681529190921660208201526001600160801b03909116604082015260600190565b6001600160a01b039384168152919092166020820152604081019190915260600190565b6001600160a01b0396871681529486166020860152604085019390935290841660608401528316608083015290911660a082015260c00190565b6001600160a01b039a8b168152988a1660208a015260408901979097526060880195909552608087019390935290861660a086015260c0850152841660e084015283166101008301529091166101208201526101400190565b6001600160a01b0397881681529590961660208601526040850193909352606084019190915260ff16608083015260a082015260c081019190915260e00190565b6001600160a01b039290921682521515602082015260400190565b6001600160a01b03929092168252602082015260400190565b6001600160a01b039490941684526001600160401b039283166020850152911660408301521515606082015260800190565b604080825283519082018190526000906020906060840190828701845b82811015613b84578151151584529284019290840190600101613b66565b50505083810382850152808551613b9b8184613c4e565b91508192508381028201848801865b83811015613bd4578583038552613bc28383516138e3565b94870194925090860190600101613baa565b50909998505050505050505050565b6000602080830181845280855180835260408601915060408482028701019250838701855b82811015613c3657603f19888603018452613c248583516138e3565b94509285019290850190600101613c08565b5092979650505050505050565b901515815260200190565b90815260200190565b600060208252611e8c60208301846138e3565b60006020825282602083015282846040840137818301604090810191909152601f909201601f19160101919050565b600060408252613cac60408301856138e3565b90508260208301529392505050565b60006020808301818452828554600180821660008114613ce25760018114613d0057613d38565b60028304607f16855260ff1983166040890152606088019350613d38565b60028304808652613d108a614923565b885b82811015613d2e5781548b820160400152908401908801613d12565b8a01604001955050505b5091979650505050505050565b602080825260159082015274426f72696e674d6174683a20556e646572666c6f7760581b604082015260600190565b602080825260139082015272105b1c9958591e481a5b9a5d1a585b1a5cd959606a1b604082015260600190565b60208082526022908201527f456e756d657261626c655365743a20696e646578206f7574206f6620626f756e604082015261647360f01b606082015260800190565b6020808252602f908201527f416363657373436f6e74726f6c3a2073656e646572206d75737420626520616e60408201526e0818591b5a5b881d1bc819dc985b9d608a1b606082015260800190565b60208082526041908201527f426174636841756374696f6e3a20656e74657220616e20756e69782074696d6560408201527f7374616d7020696e207365636f6e64732c206e6f74206d696c697365636f6e646060820152607360f81b608082015260a00190565b6020808252602b908201527f426174636841756374696f6e3a2041756374696f6e2068617320616c7265616460408201526a1e48199a5b985b1a5e995960aa1b606082015260800190565b60208082526033908201527f426174636841756374696f6e3a2054686520636f6d6d6974746564204554482060408201527265786365656473207468652062616c616e636560681b606082015260800190565b60208082526052908201527f4e6f2061677265656d656e742070726f76696465642c20706c6561736520726560408201527f766965772074686520736d61727420636f6e7472616374206265666f726520696060820152711b9d195c9858dd1a5b99c81dda5d1a081a5d60721b608082015260a00190565b6020808252601f908201527f426174636841756374696f6e3a20616c72656164792066696e616c697a656400604082015260600190565b60208082526034908201527f426174636841756374696f6e3a20656e642074696d65206d757374206265206f6040820152736c646572207468616e2073746172742074696d6560601b606082015260800190565b602080825260159082015274111bd8dd5b595b9d081cda1bdd5b1908195e1a5cdd605a1b604082015260600190565b60208082526035908201527f426174636841756374696f6e3a20656e642074696d65206d757374206265206f6040820152746c646572207468616e20737461727420707269636560581b606082015260800190565b6020808252601c908201527f426f72696e674d6174683a2075696e74313238204f766572666c6f7700000000604082015260600190565b60208082526030908201527f416363657373436f6e74726f6c3a2073656e646572206d75737420626520616e60408201526f2061646d696e20746f207265766f6b6560801b606082015260800190565b6020808252600f908201526e139bdd081a5b9a5d1a585b1a5e9959608a1b604082015260600190565b60208082526027908201527f426174636841756374696f6e3a2061646d696e20697320746865207a65726f206040820152666164647265737360c81b606082015260800190565b60208082526018908201527f426f72696e674d6174683a20416464204f766572666c6f770000000000000000604082015260600190565b6020808252818101527f426174636841756374696f6e3a204e6f2066756e647320636f6d6d6974746564604082015260600190565b60208082526018908201527f5a65726f206e616d65206973206e6f7420616c6c6f7765640000000000000000604082015260600190565b6020808252602a908201527f426174636841756374696f6e3a2041756374696f6e20686173206e6f742066696040820152691b9a5cda1959081e595d60b21b606082015260800190565b6020808252600f908201526e125b98dbdc9c9958dd081a5b9c1d5d608a1b604082015260600190565b60208082526034908201527f426174636841756374696f6e3a20746f74616c20746f6b656e73206d7573742060408201527362652067726561746572207468616e207a65726f60601b606082015260800190565b6020808252601b908201527f426174636841756374696f6e3a206e6f742066696e616c697a65640000000000604082015260600190565b6020808252602d908201527f426174636841756374696f6e3a20546f6b656e20646f6573206e6f742068617660408201526c6520313820646563696d616c7360981b606082015260800190565b60208082526031908201527f426174636841756374696f6e3a2061756374696f6e2063616e6e6f74206861766040820152701948185b1c9958591e481cdd185c9d1959607a1b606082015260800190565b6020808252602b908201527f426174636841756374696f6e3a205061796d656e742063757272656e6379206960408201526a073206e6f742045524332360ac1b606082015260800190565b6020808252601b908201527f426f72696e674d6174683a2075696e743634204f766572666c6f770000000000604082015260600190565b60208082526029908201527f426174636841756374696f6e3a207061796d656e742063757272656e637920696040820152680e640dcdee8408aa8960bb1b606082015260800190565b60208082526028908201527f426174636841756374696f6e3a2077616c6c657420697320746865207a65726f604082015267206164647265737360c01b606082015260800190565b60208082526029908201527f426174636841756374696f6e3a2056616c7565206d757374206265206869676860408201526806572207468616e20360bc1b606082015260800190565b60208082526023908201527f5472616e7366657248656c7065723a204554485f5452414e534645525f46414960408201526213115160ea1b606082015260800190565b602080825260139082015272496e646578206f7574206f6620626f756e647360681b604082015260600190565b60208082526022908201527f426174636841756374696f6e3a2053656e646572206d7573742062652061646d60408201526134b760f11b606082015260800190565b6020808252601a908201527f53686f756c64206e6f74206265206120656d7074792064617461000000000000604082015260600190565b60208082526022908201527f426174636841756374696f6e3a2046756e647320616c72656164792072616973604082015261195960f21b606082015260800190565b60208082526023908201527f426174636841756374696f6e3a206f7574736964652061756374696f6e20686f60408201526275727360e81b606082015260800190565b6020808252602f908201527f426174636841756374696f6e3a2073746172742074696d65206973206265666f60408201526e72652063757272656e742074696d6560881b606082015260800190565b6020808252601f908201527f5265656e7472616e637947756172643a207265656e7472616e742063616c6c00604082015260600190565b6020808252602d908201527f426174636841756374696f6e3a205061796d656e742063757272656e6379206960408201526c39903737ba1030903a37b5b2b760991b606082015260800190565b60208082526018908201527f426f72696e674d6174683a204d756c204f766572666c6f770000000000000000604082015260600190565b6020808252818101527f426174636841756374696f6e3a204e6f20746f6b656e7320746f20636c61696d604082015260600190565b6020808252602f908201527f416363657373436f6e74726f6c3a2063616e206f6e6c792072656e6f756e636560408201526e103937b632b9903337b91039b2b63360891b606082015260800190565b602080825260149082015273426f72696e674d6174683a20446976207a65726f60601b604082015260600190565b6001600160801b03948516815292909316602083015215156040820152901515606082015260800190565b918252602082015260400190565b6001600160401b0393841681529190921660208201526001600160801b03909116604082015260600190565b6000808335601e198436030181126148f5578283fd5b8301803591506001600160401b0382111561490e578283fd5b602001915036819003821315611c6357600080fd5b60009081526020902090565b60005b8381101561494a578181015183820152602001614932565b83811115611f755750506000910152565b6001600160a01b0381168114610fd557600080fd5b8015158114610fd557600080fd5b60ff81168114610fd557600080fdfe9d49f397ae9ef1a834b569acb967799a367061e305932181a44f5773da873bfd6337ed398c0e8467698c581374fdce4db14922df487b5a39483079f5f59b60a497667070c54ef182b0f5858b034beac1b6f3089aa2d3188bb1e8929f4fa9b9299f2df0fed2c77648de5860a4cc508cd0818c85b8b8a1ab4ceeef8d981c8956a64920756e6465727374616e642074686174204920616d20696e746572616374696e672077697468206120736d61727420636f6e74726163742e204920756e6465727374616e64207468617420746f6b656e7320636f6d6d6974656420617265207375626a65637420746f2074686520746f6b656e2069737375657220616e64206c6f63616c206c617773207768657265206170706c696361626c652e204920686176652072657669657765642074686520636f6465206f66207468697320736d61727420636f6e747261637420616e6420756e6465727374616e642069742066756c6c792e204920616772656520746f206e6f7420686f6c6420646576656c6f70657273206f72206f746865722070656f706c65206173736f6369617465642077697468207468652070726f6a656374206c6961626c6520666f7220616e79206c6f73736573206f72206d6973756e6465727374616e64696e6773a2646970667358221220e3158d2e3e01d6b7bc837a17a9c2f213187dc070b1c2c0e9f0c756da35cba8a364736f6c634300060c0033",
  "devdoc": {
    "kind": "dev",
    "methods": {
      "addAdminRole(address)": {
        "details": "The sender must have the admin role.",
        "params": {
          "_address": "EOA or contract receiving the new role."
        }
      },
      "addMinterRole(address)": {
        "details": "The sender must have the admin role",
        "params": {
          "_address": "EOA or contract receiving the new role"
        }
      },
      "addOperatorRole(address)": {
        "details": "The sender must have the admin role",
        "params": {
          "_address": "EOA or contract receiving the new role"
        }
      },
      "addSmartContractRole(address)": {
        "details": "The sender must have the admin role",
        "params": {
          "_address": "EOA or contract receiving the new role"
        }
      },
      "auctionEnded()": {
        "returns": {
          "_0": "bool True if current time is greater than auction end time."
        }
      },
      "auctionSuccessful()": {
        "returns": {
          "_0": "True if tokens sold greater than or equals to the minimum commitment amount."
        }
      },
      "batch(bytes[],bool)": {
        "params": {
          "calls": "An array of inputs for each call.",
          "revertOnFail": "If True then reverts after a failed call and stops doing further calls."
        },
        "returns": {
          "results": "An array with the returned data of each function call, mapped one-to-one to `calls`.",
          "successes": "An array indicating the success of a call, mapped one-to-one to `calls`."
        }
      },
      "cancelAuction()": {
        "details": "Admin can cancel the auction before it starts"
      },
      "commitEth(address,bool)": {
        "params": {
          "_beneficiary": "Auction participant ETH address."
        }
      },
      "commitTokens(uint256,bool)": {
        "params": {
          "_amount": "Amount of tokens to commit."
        }
      },
      "commitTokensFrom(address,uint256,bool)": {
        "details": "Users must approve contract prior to committing tokens to auction.",
        "params": {
          "_amount": "Amount of approved ERC20 tokens.",
          "_from": "User ERC20 address."
        }
      },
      "finalize()": {
        "details": "Transfer contract funds to initialized wallet."
      },
      "finalized()": {
        "returns": {
          "_0": "bool True if auction has been finalised."
        }
      },
      "getAllDocuments()": {
        "returns": {
          "_0": "string List of all documents names present in the contract."
        }
      },
      "getDocument(string)": {
        "params": {
          "_name": "Name of the document"
        },
        "returns": {
          "_0": "string The data associated with the document.",
          "_1": "uint256 the timestamp at which the document was last modified."
        }
      },
      "getDocumentCount()": {
        "returns": {
          "_0": "uint256 Count of the document names present in the contract."
        }
      },
      "getDocumentName(uint256)": {
        "returns": {
          "_0": "string Name of the document name."
        }
      },
      "getRoleAdmin(bytes32)": {
        "details": "Returns the admin role that controls `role`. See {grantRole} and {revokeRole}. To change a role's admin, use {_setRoleAdmin}."
      },
      "getRoleMember(bytes32,uint256)": {
        "details": "Returns one of the accounts that have `role`. `index` must be a value between 0 and {getRoleMemberCount}, non-inclusive. Role bearers are not sorted in any particular way, and their ordering may change at any point. WARNING: When using {getRoleMember} and {getRoleMemberCount}, make sure you perform all queries on the same block. See the following https://forum.openzeppelin.com/t/iterating-over-elements-on-enumerableset-in-openzeppelin-contracts/2296[forum post] for more information."
      },
      "getRoleMemberCount(bytes32)": {
        "details": "Returns the number of accounts that have `role`. Can be used together with {getRoleMember} to enumerate all bearers of a role."
      },
      "grantRole(bytes32,address)": {
        "details": "Grants `role` to `account`. If `account` had not been already granted `role`, emits a {RoleGranted} event. Requirements: - the caller must have ``role``'s admin role."
      },
      "hasAdminRole(address)": {
        "params": {
          "_address": "EOA or contract being checked."
        },
        "returns": {
          "_0": "bool True if the account has the role or false if it does not."
        }
      },
      "hasMinterRole(address)": {
        "params": {
          "_address": "EOA or contract being checked"
        },
        "returns": {
          "_0": "bool True if the account has the role or false if it does not"
        }
      },
      "hasOperatorRole(address)": {
        "params": {
          "_address": "EOA or contract being checked"
        },
        "returns": {
          "_0": "bool True if the account has the role or false if it does not"
        }
      },
      "hasRole(bytes32,address)": {
        "details": "Returns `true` if `account` has been granted `role`."
      },
      "hasSmartContractRole(address)": {
        "params": {
          "_address": "EOA or contract being checked"
        },
        "returns": {
          "_0": "bool True if the account has the role or false if it does not"
        }
      },
      "initAccessControls(address)": {
        "params": {
          "_admin": "Admins address."
        }
      },
      "initAuction(address,address,uint256,uint256,uint256,address,uint256,address,address,address)": {
        "details": "Init function.",
        "params": {
          "_admin": "Address that can finalize auction.",
          "_endTime": "Auction end time.",
          "_funder": "The address that funds the token for BatchAuction.",
          "_minimumCommitmentAmount": "Minimum amount collected at which the auction will be successful.",
          "_paymentCurrency": "The currency the BatchAuction accepts for payment. Can be ETH or token address.",
          "_startTime": "Auction start time.",
          "_token": "Address of the token being sold.",
          "_totalTokens": "The total number of tokens to sell in auction.",
          "_wallet": "Address where collected funds will be forwarded to."
        }
      },
      "marketParticipationAgreement()": {
        "details": "Attribution to the awesome delta.financial contracts"
      },
      "removeAdminRole(address)": {
        "details": "The sender must have the admin role.",
        "params": {
          "_address": "EOA or contract affected."
        }
      },
      "removeMinterRole(address)": {
        "details": "The sender must have the admin role",
        "params": {
          "_address": "EOA or contract affected"
        }
      },
      "removeOperatorRole(address)": {
        "details": "The sender must have the admin role",
        "params": {
          "_address": "EOA or contract affected"
        }
      },
      "removeSmartContractRole(address)": {
        "details": "The sender must have the admin role",
        "params": {
          "_address": "EOA or contract affected"
        }
      },
      "renounceRole(bytes32,address)": {
        "details": "Revokes `role` from the calling account. Roles are often managed via {grantRole} and {revokeRole}: this function's purpose is to provide a mechanism for accounts to lose their privileges if they are compromised (such as when a trusted device is misplaced). If the calling account had been granted `role`, emits a {RoleRevoked} event. Requirements: - the caller must be `account`."
      },
      "revokeRole(bytes32,address)": {
        "details": "Revokes `role` from `account`. If `account` had been granted `role`, emits a {RoleRevoked} event. Requirements: - the caller must have ``role``'s admin role."
      },
      "setAuctionPrice(uint256)": {
        "params": {
          "_minimumCommitmentAmount": "Auction minimum raised target."
        }
      },
      "setAuctionTime(uint256,uint256)": {
        "params": {
          "_endTime": "Auction end time.",
          "_startTime": "Auction start time."
        }
      },
      "setAuctionWallet(address)": {
        "params": {
          "_wallet": "Auction wallet is where funds will be sent."
        }
      },
      "tokenPrice()": {
        "returns": {
          "_0": "Token price."
        }
      },
      "tokensClaimable(address)": {
        "params": {
          "_user": "Auction participant address."
        },
        "returns": {
          "claimerCommitment": "Tokens left to claim."
        }
      }
    },
    "stateVariables": {
      "ETH_ADDRESS": {
        "details": "The placeholder ETH address."
      },
      "marketTemplate": {
        "details": "For different marketplace types, this must be incremented."
      }
    },
    "version": 1
  },
  "userdoc": {
    "events": {
      "AddedCommitment(address,uint256)": {
        "notice": "Event for adding a commitment."
      },
      "AuctionCancelled()": {
        "notice": "Event for cancellation of the auction."
      },
      "AuctionDeployed(address,address,uint256,address,address,address)": {
        "notice": "Event for all auction data. Emmited on deployment."
      },
      "AuctionFinalized()": {
        "notice": "Event for finalization of the auction."
      },
      "AuctionPointListUpdated(address,bool)": {
        "notice": "Event for updating the point list."
      },
      "AuctionPriceUpdated(uint256)": {
        "notice": "Event for updating auction prices. Needs to be before auction starts."
      },
      "AuctionTimeUpdated(uint256,uint256)": {
        "notice": "Event for updating auction times.  Needs to be before auction starts."
      },
      "AuctionWalletUpdated(address)": {
        "notice": "Event for updating auction wallet. Needs to be before auction starts."
      },
      "TokensWithdrawn(address,address,uint256)": {
        "notice": "Event for token withdrawals."
      }
    },
    "kind": "user",
    "methods": {
      "MINTER_ROLE()": {
        "notice": "Role definitions"
      },
      "addAdminRole(address)": {
        "notice": "Grants the admin role to an address."
      },
      "addMinterRole(address)": {
        "notice": "Grants the minter role to an address"
      },
      "addOperatorRole(address)": {
        "notice": "Grants the operator role to an address"
      },
      "addSmartContractRole(address)": {
        "notice": "Grants the smart contract role to an address"
      },
      "auctionEnded()": {
        "notice": "Checks if the auction has ended."
      },
      "auctionSuccessful()": {
        "notice": "Checks if raised more than minimum amount."
      },
      "batch(bytes[],bool)": {
        "notice": "Allows batched call to self (this contract)."
      },
      "cancelAuction()": {
        "notice": "Cancel Auction"
      },
      "claimed(address)": {
        "notice": "Amount of tokens to claim per address."
      },
      "commitEth(address,bool)": {
        "notice": "Commit ETH to buy tokens on auction."
      },
      "commitTokens(uint256,bool)": {
        "notice": "Buy Tokens by commiting approved ERC20 tokens to this contract address."
      },
      "commitTokensFrom(address,uint256,bool)": {
        "notice": "Checks if amount not 0 and makes the transfer and adds commitment."
      },
      "finalize()": {
        "notice": "Auction finishes successfully above the reserve"
      },
      "finalizeTimeExpired()": {
        "notice": "Returns true if 7 days have passed since the end of the auction"
      },
      "finalized()": {
        "notice": "Checks if the auction has been finalised."
      },
      "getAllDocuments()": {
        "notice": "Used to retrieve a full list of documents attached to the smart contract."
      },
      "getDocument(string)": {
        "notice": "Used to return the details of a document with a known name (`string`)."
      },
      "getDocumentCount()": {
        "notice": "Used to retrieve the total documents in the smart contract."
      },
      "getDocumentName(uint256)": {
        "notice": "Used to retrieve the document name from index in the smart contract."
      },
      "hasAdminRole(address)": {
        "notice": "Used to check whether an address has the admin role."
      },
      "hasMinterRole(address)": {
        "notice": "Used to check whether an address has the minter role"
      },
      "hasOperatorRole(address)": {
        "notice": "Used to check whether an address has the operator role"
      },
      "hasSmartContractRole(address)": {
        "notice": "Used to check whether an address has the smart contract role"
      },
      "initAccessControls(address)": {
        "notice": "Initializes access controls."
      },
      "initAuction(address,address,uint256,uint256,uint256,address,uint256,address,address,address)": {
        "notice": "Initializes main contract variables and transfers funds for the auction."
      },
      "marketTemplate()": {
        "notice": "MISOMarket template id for the factory contract."
      },
      "paymentCurrency()": {
        "notice": "The currency the BatchAuction accepts for payment. Can be ETH or token address."
      },
      "permitToken(address,address,address,uint256,uint256,uint8,bytes32,bytes32)": {
        "notice": "Call wrapper that performs `ERC20.permit` on `token`. Lookup `IERC20.permit`."
      },
      "pointList()": {
        "notice": "Address that manages auction approvals."
      },
      "removeAdminRole(address)": {
        "notice": "Removes the admin role from an address."
      },
      "removeMinterRole(address)": {
        "notice": "Removes the minter role from an address"
      },
      "removeOperatorRole(address)": {
        "notice": "Removes the operator role from an address"
      },
      "removeSmartContractRole(address)": {
        "notice": "Removes the smart contract role from an address"
      },
      "setAuctionPrice(uint256)": {
        "notice": "Admin can set start and min price through this function."
      },
      "setAuctionTime(uint256,uint256)": {
        "notice": "Admin can set start and end time through this function."
      },
      "setAuctionWallet(address)": {
        "notice": "Admin can set the auction wallet through this function."
      },
      "tokenPrice()": {
        "notice": "Calculates the price of each token from all commitments."
      },
      "tokensClaimable(address)": {
        "notice": "How many tokens the user is able to claim."
      },
      "withdrawTokens()": {
        "notice": "Withdraws bought tokens, or returns commitment if the sale is unsuccessful."
      },
      "withdrawTokens(address)": {
        "notice": "Withdraw your tokens once the Auction has ended."
      }
    },
    "notice": "Attribution to delta.financialAttribution to dutchswap.com",
    "version": 1
  },
  "storageLayout": {
    "storage": [
      {
        "astId": 17372,
        "contract": "contracts/Auctions/BatchAuction.sol:BatchAuction",
        "label": "_roles",
        "offset": 0,
        "slot": "0",
        "type": "t_mapping(t_bytes32,t_struct(RoleData)17368_storage)"
      },
      {
        "astId": 808,
        "contract": "contracts/Auctions/BatchAuction.sol:BatchAuction",
        "label": "initAccess",
        "offset": 0,
        "slot": "1",
        "type": "t_bool"
      },
      {
        "astId": 26149,
        "contract": "contracts/Auctions/BatchAuction.sol:BatchAuction",
        "label": "_documents",
        "offset": 0,
        "slot": "2",
        "type": "t_mapping(t_string_memory_ptr,t_struct(Document)26145_storage)"
      },
      {
        "astId": 26153,
        "contract": "contracts/Auctions/BatchAuction.sol:BatchAuction",
        "label": "_docIndexes",
        "offset": 0,
        "slot": "3",
        "type": "t_mapping(t_string_memory_ptr,t_uint32)"
      },
      {
        "astId": 26156,
        "contract": "contracts/Auctions/BatchAuction.sol:BatchAuction",
        "label": "_docNames",
        "offset": 0,
        "slot": "4",
        "type": "t_array(t_string_storage)dyn_storage"
      },
      {
        "astId": 19381,
        "contract": "contracts/Auctions/BatchAuction.sol:BatchAuction",
        "label": "_status",
        "offset": 0,
        "slot": "5",
        "type": "t_uint256"
      },
      {
        "astId": 1320,
        "contract": "contracts/Auctions/BatchAuction.sol:BatchAuction",
        "label": "marketInfo",
        "offset": 0,
        "slot": "6",
        "type": "t_struct(MarketInfo)1318_storage"
      },
      {
        "astId": 1331,
        "contract": "contracts/Auctions/BatchAuction.sol:BatchAuction",
        "label": "marketStatus",
        "offset": 0,
        "slot": "7",
        "type": "t_struct(MarketStatus)1329_storage"
      },
      {
        "astId": 1333,
        "contract": "contracts/Auctions/BatchAuction.sol:BatchAuction",
        "label": "auctionToken",
        "offset": 0,
        "slot": "9",
        "type": "t_address"
      },
      {
        "astId": 1336,
        "contract": "contracts/Auctions/BatchAuction.sol:BatchAuction",
        "label": "paymentCurrency",
        "offset": 0,
        "slot": "10",
        "type": "t_address"
      },
      {
        "astId": 1339,
        "contract": "contracts/Auctions/BatchAuction.sol:BatchAuction",
        "label": "pointList",
        "offset": 0,
        "slot": "11",
        "type": "t_address"
      },
      {
        "astId": 1341,
        "contract": "contracts/Auctions/BatchAuction.sol:BatchAuction",
        "label": "wallet",
        "offset": 0,
        "slot": "12",
        "type": "t_address_payable"
      },
      {
        "astId": 1345,
        "contract": "contracts/Auctions/BatchAuction.sol:BatchAuction",
        "label": "commitments",
        "offset": 0,
        "slot": "13",
        "type": "t_mapping(t_address,t_uint256)"
      },
      {
        "astId": 1350,
        "contract": "contracts/Auctions/BatchAuction.sol:BatchAuction",
        "label": "claimed",
        "offset": 0,
        "slot": "14",
        "type": "t_mapping(t_address,t_uint256)"
      }
    ],
    "types": {
      "t_address": {
        "encoding": "inplace",
        "label": "address",
        "numberOfBytes": "20"
      },
      "t_address_payable": {
        "encoding": "inplace",
        "label": "address payable",
        "numberOfBytes": "20"
      },
      "t_array(t_bytes32)dyn_storage": {
        "base": "t_bytes32",
        "encoding": "dynamic_array",
        "label": "bytes32[]",
        "numberOfBytes": "32"
      },
      "t_array(t_string_storage)dyn_storage": {
        "base": "t_string_storage",
        "encoding": "dynamic_array",
        "label": "string[]",
        "numberOfBytes": "32"
      },
      "t_bool": {
        "encoding": "inplace",
        "label": "bool",
        "numberOfBytes": "1"
      },
      "t_bytes32": {
        "encoding": "inplace",
        "label": "bytes32",
        "numberOfBytes": "32"
      },
      "t_mapping(t_address,t_uint256)": {
        "encoding": "mapping",
        "key": "t_address",
        "label": "mapping(address => uint256)",
        "numberOfBytes": "32",
        "value": "t_uint256"
      },
      "t_mapping(t_bytes32,t_struct(RoleData)17368_storage)": {
        "encoding": "mapping",
        "key": "t_bytes32",
        "label": "mapping(bytes32 => struct AccessControl.RoleData)",
        "numberOfBytes": "32",
        "value": "t_struct(RoleData)17368_storage"
      },
      "t_mapping(t_bytes32,t_uint256)": {
        "encoding": "mapping",
        "key": "t_bytes32",
        "label": "mapping(bytes32 => uint256)",
        "numberOfBytes": "32",
        "value": "t_uint256"
      },
      "t_mapping(t_string_memory_ptr,t_struct(Document)26145_storage)": {
        "encoding": "mapping",
        "key": "t_string_memory_ptr",
        "label": "mapping(string => struct Documents.Document)",
        "numberOfBytes": "32",
        "value": "t_struct(Document)26145_storage"
      },
      "t_mapping(t_string_memory_ptr,t_uint32)": {
        "encoding": "mapping",
        "key": "t_string_memory_ptr",
        "label": "mapping(string => uint32)",
        "numberOfBytes": "32",
        "value": "t_uint32"
      },
      "t_string_memory_ptr": {
        "encoding": "bytes",
        "label": "string",
        "numberOfBytes": "32"
      },
      "t_string_storage": {
        "encoding": "bytes",
        "label": "string",
        "numberOfBytes": "32"
      },
      "t_struct(AddressSet)19062_storage": {
        "encoding": "inplace",
        "label": "struct EnumerableSet.AddressSet",
        "members": [
          {
            "astId": 19061,
            "contract": "contracts/Auctions/BatchAuction.sol:BatchAuction",
            "label": "_inner",
            "offset": 0,
            "slot": "0",
            "type": "t_struct(Set)18797_storage"
          }
        ],
        "numberOfBytes": "64"
      },
      "t_struct(Document)26145_storage": {
        "encoding": "inplace",
        "label": "struct Documents.Document",
        "members": [
          {
            "astId": 26140,
            "contract": "contracts/Auctions/BatchAuction.sol:BatchAuction",
            "label": "docIndex",
            "offset": 0,
            "slot": "0",
            "type": "t_uint32"
          },
          {
            "astId": 26142,
            "contract": "contracts/Auctions/BatchAuction.sol:BatchAuction",
            "label": "lastModified",
            "offset": 4,
            "slot": "0",
            "type": "t_uint64"
          },
          {
            "astId": 26144,
            "contract": "contracts/Auctions/BatchAuction.sol:BatchAuction",
            "label": "data",
            "offset": 0,
            "slot": "1",
            "type": "t_string_storage"
          }
        ],
        "numberOfBytes": "64"
      },
      "t_struct(MarketInfo)1318_storage": {
        "encoding": "inplace",
        "label": "struct BatchAuction.MarketInfo",
        "members": [
          {
            "astId": 1313,
            "contract": "contracts/Auctions/BatchAuction.sol:BatchAuction",
            "label": "startTime",
            "offset": 0,
            "slot": "0",
            "type": "t_uint64"
          },
          {
            "astId": 1315,
            "contract": "contracts/Auctions/BatchAuction.sol:BatchAuction",
            "label": "endTime",
            "offset": 8,
            "slot": "0",
            "type": "t_uint64"
          },
          {
            "astId": 1317,
            "contract": "contracts/Auctions/BatchAuction.sol:BatchAuction",
            "label": "totalTokens",
            "offset": 16,
            "slot": "0",
            "type": "t_uint128"
          }
        ],
        "numberOfBytes": "32"
      },
      "t_struct(MarketStatus)1329_storage": {
        "encoding": "inplace",
        "label": "struct BatchAuction.MarketStatus",
        "members": [
          {
            "astId": 1322,
            "contract": "contracts/Auctions/BatchAuction.sol:BatchAuction",
            "label": "commitmentsTotal",
            "offset": 0,
            "slot": "0",
            "type": "t_uint128"
          },
          {
            "astId": 1324,
            "contract": "contracts/Auctions/BatchAuction.sol:BatchAuction",
            "label": "minimumCommitmentAmount",
            "offset": 16,
            "slot": "0",
            "type": "t_uint128"
          },
          {
            "astId": 1326,
            "contract": "contracts/Auctions/BatchAuction.sol:BatchAuction",
            "label": "finalized",
            "offset": 0,
            "slot": "1",
            "type": "t_bool"
          },
          {
            "astId": 1328,
            "contract": "contracts/Auctions/BatchAuction.sol:BatchAuction",
            "label": "usePointList",
            "offset": 1,
            "slot": "1",
            "type": "t_bool"
          }
        ],
        "numberOfBytes": "64"
      },
      "t_struct(RoleData)17368_storage": {
        "encoding": "inplace",
        "label": "struct AccessControl.RoleData",
        "members": [
          {
            "astId": 17365,
            "contract": "contracts/Auctions/BatchAuction.sol:BatchAuction",
            "label": "members",
            "offset": 0,
            "slot": "0",
            "type": "t_struct(AddressSet)19062_storage"
          },
          {
            "astId": 17367,
            "contract": "contracts/Auctions/BatchAuction.sol:BatchAuction",
            "label": "adminRole",
            "offset": 0,
            "slot": "2",
            "type": "t_bytes32"
          }
        ],
        "numberOfBytes": "96"
      },
      "t_struct(Set)18797_storage": {
        "encoding": "inplace",
        "label": "struct EnumerableSet.Set",
        "members": [
          {
            "astId": 18792,
            "contract": "contracts/Auctions/BatchAuction.sol:BatchAuction",
            "label": "_values",
            "offset": 0,
            "slot": "0",
            "type": "t_array(t_bytes32)dyn_storage"
          },
          {
            "astId": 18796,
            "contract": "contracts/Auctions/BatchAuction.sol:BatchAuction",
            "label": "_indexes",
            "offset": 0,
            "slot": "1",
            "type": "t_mapping(t_bytes32,t_uint256)"
          }
        ],
        "numberOfBytes": "64"
      },
      "t_uint128": {
        "encoding": "inplace",
        "label": "uint128",
        "numberOfBytes": "16"
      },
      "t_uint256": {
        "encoding": "inplace",
        "label": "uint256",
        "numberOfBytes": "32"
      },
      "t_uint32": {
        "encoding": "inplace",
        "label": "uint32",
        "numberOfBytes": "4"
      },
      "t_uint64": {
        "encoding": "inplace",
        "label": "uint64",
        "numberOfBytes": "8"
      }
    }
  }
}